:100000000C942A000C943F000C943F000C943F0089
:100010000C943F000C943F000C943F000C943F0064
:100020000C943F000C943F000C943F000C943F0054
:100030000C943F000C943F000C943F000C943F0044
:100040000C943F000C943F000C943F000C943F0034
:100050000C943F0011241FBECFE5D8E0DEBFCDBF1A
:1000600010E0A0E6B0E0EAEEF5E002C005900D92E7
:10007000A83BB107D9F70E94D2010C94F3020C946B
:10008000000041E062E080E00E94640285E08A9521
:10009000F1F7000040E062E080E00E9464028FE33C
:1000A0009FE10197F1F700C000000895CF93C82F9A
:1000B0008FE99FE00197F1F700C0000040E063E0A6
:1000C00080E00E946402C4FB442740F960E081E0C4
:1000D0000E946402C5FB442740F961E081E00E9470
:1000E0006402C6FB442740F962E081E00E9464029A
:1000F0004C2F441F4427441F64E081E00E946402A7
:100100000E9441004C2F417060E081E00E94640237
:10011000C1FB442740F961E081E00E946402C2FB18
:10012000442740F962E081E00E946402C3FB442757
:1001300040F964E081E00E9464020E944100CF9196
:100140000895CF93C82F41E063E080E00E946402ED
:10015000C4FB442740F960E081E00E946402C5FBD3
:10016000442740F961E081E00E946402C6FB442715
:1001700040F962E081E00E9464024C2F441F442752
:10018000441F64E081E00E9464020E9441004C2F01
:10019000417060E081E00E946402C1FB442740F9A5
:1001A00061E081E00E946402C2FB442740F962E002
:1001B00081E00E946402C3FB442740F964E081E0CF
:1001C0000E9464020E944100CF910895813059F04D
:1001D00028F0823069F0833081F0089580E8860F3E
:1001E0000E945600089580EC860F0E9456000895E4
:1001F00084E9860F0E945600089584ED860F0E94C0
:10020000560008950E94A1000895CF93DF93EC015A
:100210008881882331F021960E94A1008991811163
:10022000FBCFDF91CF910895FF920F931F93CF9350
:10023000DF93C0E6D0E06894FF24F6F88F2D0E948B
:1002400056008E01085F1F4F89910E94A100C017C0
:10025000D107D1F788E0F80EE80180E8F812EECF78
:10026000DF91CF911F910F91FF90089541E063E0DE
:1002700080E00E94F70141E062E080E00E94F70127
:1002800041E060E081E00E94F70141E061E081E04F
:100290000E94F70141E062E081E00E94F70141E045
:1002A00064E081E00E94F7012FEF89EF90E0215098
:1002B00080409040E1F700C0000083E00E945600BB
:1002C0008FE19EE40197F1F700C0000083E00E94F7
:1002D00056008FE891E00197F1F700C0000083E03D
:1002E0000E94560082E00E94560088E20E9456005A
:1002F0008CE00E9456000E94140180E80E94560083
:100300000895CF92DF92EF92FF921F93CF93DF93E6
:10031000CDB7DEB72C970FB6F894DEBF0FBECDBFBA
:10032000611571058105910521F480E30E94A1000A
:100330002BC010E00F2EFAE0CF2ED12CE12CF12CA7
:10034000F02D1F5FA70196010E94D102E1E0F0E0CD
:10035000EC0FFD1FE10FF11D605D6083622F732FB5
:10036000842F952F611571058105910551F7112392
:1003700059F0E1E0F0E0EC0FFD1FE10FF11D80818D
:100380000E94A1001150A9F72C960FB6F894DEBF79
:100390000FBECDBFDF91CF911F91FF90EF90DF9007
:1003A000CF9008950E94360162E080E00E94E6004E
:1003B00082E00E94020180EA90E00E94050182E052
:1003C0000E94020166E081E00E94E6008FEA90E070
:1003D0000E94050181E00E94020165E082E00E9426
:1003E000E6006FEF7FEFCB010E948101FFCF8130EC
:1003F00001F130F08230B1F1833009F44CC008953E
:10040000413059F42AB381E090E002C0880F991F6F
:100410006A95E2F7822B8ABB08952AB381E090E0C7
:1004200002C0880F991F6A95E2F7809582238ABBE4
:100430000895413059F427B381E090E002C0880F5D
:10044000991F6A95E2F7822B87BB089527B381E055
:1004500090E002C0880F991F6A95E2F78095822389
:1004600087BB0895413059F424B381E090E002C085
:10047000880F991F6A95E2F7822B84BB089524B3F5
:1004800081E090E002C0880F991F6A95E2F780959D
:10049000822384BB0895413059F421B381E090E078
:1004A00002C0880F991F6A95E2F7822B81BB0895DD
:1004B00021B381E090E002C0880F991F6A95E2F7AE
:1004C0008095822381BB0895813001F130F0823024
:1004D000B1F1833009F44CC0089541110CC02BB325
:1004E00081E090E002C0880F991F6A95E2F780953D
:1004F00082238BBB08952BB381E090E002C0880F6C
:10050000991F6A95E2F7822B8BBB089541110CC0AD
:1005100028B381E090E002C0880F991F6A95E2F746
:100520008095822388BB089528B381E090E002C0C3
:10053000880F991F6A95E2F7822B88BB08954111B5
:100540000CC025B381E090E002C0880F991F6A9526
:10055000E2F78095822385BB089525B381E090E082
:1005600002C0880F991F6A95E2F7822B85BB089518
:1005700041110CC022B381E090E002C0880F991FA6
:100580006A95E2F78095822382BB089522B381E0C9
:1005900090E002C0880F991F6A95E2F7822B82BB18
:1005A0000895A1E21A2EAA1BBB1BFD010DC0AA1FB4
:1005B000BB1FEE1FFF1FA217B307E407F50720F0CC
:1005C000A21BB30BE40BF50B661F771F881F991F47
:1005D0001A9469F760957095809590959B01AC0190
:0A05E000BD01CF010895F894FFCF8C
:1005EA000A1F1F1F1F0E0400000A0A0A110E00002C
:1005FA00000E1F151F110E00041F1111111F1F1FBE
:10060A00041F11111F1F1F1F041F111F1F1F1F1F50
:10061A00041F1F1F1F1F1F1F0000010105051515BD
:10062A0057656C636F6D6520746F204E54490041A5
:08063A00626E6162792000008C
:00000001FF
