S00D0000536C6176652E737265631C
S11300000C942A000C9447000C9447000C9447006D
S11300100C9447000C9447000C9447000C94470040
S11300200C9447000C9447000C9447000C94470030
S11300300C94870A0C948A0B0C9447000C94050CBE
S11300400C9447000C9447000C9447000C94470010
S11300500C94470011241FBECFE5D8E0DEBFCDBF0E
S113006010E0A0E6B0E0EEE2FCE102C005900D92E3
S1130070A83BB107D9F720E0A8EBB0E001C01D927E
S1130080A23FB207E1F70E94E1090C94150E0C940B
S11300900000CF93DF9300D01F92CDB7DEB78983E2
S11300A06A834B838981882F90E08130910509F41C
S11300B051C0823091051CF4892B49F014C182305F
S11300C0910509F48AC0039709F4CAC00CC18B8155
S11300D08130A9F48AE390E02AE330E0F901208139
S11300E0622F2A81422F50E021E030E002C0220F2B
S11300F0331F4A95E2F7262BFC012083F4C08AE3E0
S113010090E02AE330E0F9012081622F2A81422F16
S113011050E021E030E002C0220F331F4A95E2F79D
S113012020952623FC0120838BE390E02BE330E031
S1130130F9012081622F2A81422F50E021E030E032
S113014002C0220F331F4A95E2F720952623FC01B3
S11301502083C9C08B818130A9F487E390E027E331
S113016030E0F9012081622F2A81422F50E021E002
S113017030E002C0220F331F4A95E2F7262BFC0120
S11301802083B1C087E390E027E330E0F9012081C8
S1130190622F2A81422F50E021E030E002C0220F7A
S11301A0331F4A95E2F720952623FC01208388E338
S11301B090E028E330E0F9012081622F2A81422F68
S11301C050E021E030E002C0220F331F4A95E2F7ED
S11301D020952623FC01208386C08B818130A9F4DD
S11301E084E390E024E330E0F9012081622F2A8146
S11301F0422F50E021E030E002C0220F331F4A9525
S1130200E2F7262BFC0120836EC084E390E024E314
S113021030E0F9012081622F2A81422F50E021E051
S113022030E002C0220F331F4A95E2F720952623BF
S1130230FC01208385E390E025E330E0F90120818F
S1130240622F2A81422F50E021E030E002C0220FC9
S1130250331F4A95E2F720952623FC01208343C0EF
S11302608B818130A9F481E390E021E330E0F9014E
S11302702081622F2A81422F50E021E030E002C029
S1130280220F331F4A95E2F7262BFC0120832AC054
S113029081E390E021E330E0F9012081622F2A819B
S11302A0422F50E021E030E002C0220F331F4A9574
S11302B0E2F720952623FC01208382E390E022E3E9
S11302C030E0F9012081622F2A81422F50E021E0A1
S11302D030E002C0220F331F4A95E2F7209526230F
S11302E0FC012083000000000F900F900F90DF911D
S11302F0CF910895CF93DF9300D01F92CDB7DEB78F
S113030089836A834B838981882F90E081309105AA
S1130310E1F1823091051CF4892B49F0C0C0823090
S1130320910509F460C0039709F48BC0B8C08B81B0
S11303308823B1F48BE390E02BE330E0F9012081D2
S1130340622F2A81422F50E021E030E002C0220FC8
S1130350331F4A95E2F720952623FC0120839FC092
S11303608BE390E02BE330E0F9012081622F2A81B6
S1130370422F50E021E030E002C0220F331F4A95A3
S1130380E2F7262BFC0120838AC08B818823B1F4F9
S113039088E390E028E330E0F9012081622F2A818C
S11303A0422F50E021E030E002C0220F331F4A9573
S11303B0E2F720952623FC01208371C088E390E0B6
S11303C028E330E0F9012081622F2A81422F50E096
S11303D021E030E002C0220F331F4A95E2F7262BBA
S11303E0FC0120835CC08B818823B1F485E390E019
S11303F025E330E0F9012081622F2A81422F50E069
S113040021E030E002C0220F331F4A95E2F7209525
S11304102623FC01208343C085E390E025E330E0FC
S1130420F9012081622F2A81422F50E021E030E03F
S113043002C0220F331F4A95E2F7262BFC012083CA
S11304402EC08B818823B1F482E390E022E330E074
S1130450F9012081622F2A81422F50E021E030E00F
S113046002C0220F331F4A95E2F720952623FC0190
S1130470208314C082E390E022E330E0F90120817C
S1130480622F2A81422F50E021E030E002C0220F87
S1130490331F4A95E2F7262BFC012083000000005D
S11304A00F900F900F90DF91CF910895CF93DF932A
S11304B000D0CDB7DEB789836A838981882F90E025
S11304C08130910511F1823091051CF4892B41F0A2
S11304D05BC08230910571F1039709F440C054C0A8
S11304E08BE390E02BE330E0F9012081622F2A8135
S11304F0422F50E021E030E002C0220F331F4A9522
S1130500E2F72627FC0120833FC088E390E028E33C
S113051030E0F9012081622F2A81422F50E021E04E
S113052030E002C0220F331F4A95E2F72627FC0170
S113053020832AC085E390E025E330E0F90120819F
S1130540622F2A81422F50E021E030E002C0220FC6
S1130550331F4A95E2F72627FC01208315C082E366
S113056090E022E330E0F9012081622F2A81422FBA
S113057050E021E030E002C0220F331F4A95E2F739
S11305802627FC012083000000000F900F90DF91CC
S1130590CF910895CF93DF93CDB7DEB7AE970FB663
S11305A0F894DEBF0FBECDBF41E062E080E00E9460
S11305B07A0180E090E0A0E8BFE389839A83AB836B
S11305C0BC832BEA3AEA4AEA50E469817A818B8156
S11305D09C810E94A80DDC01CB018B8B9C8BAD8B85
S11305E0BE8B20E030E040E850E469817A818B8161
S11305F09C810E94A80DDC01CB018F8B988FA98F61
S1130600BA8F20E030E040E85FE36B897C898D8914
S11306109E890E94880C88231CF481E08B8FB2C0D1
S113062020E03FEF4FE757E46F89788D898D9A8DED
S11306300E94A30D18160CF07BC020E030E04AE7BE
S113064054E469817A818B819C810E948D0CDC0148
S1130650CB018C8F9D8FAE8FBF8F20E030E04AE7B7
S113066055E46C8D7D8D8E8D9F8D0E94A80DDC01CF
S1130670CB0188A399A3AAA3BBA320E030E040E860
S11306805FE368A179A18AA19BA10E94880C8823B9
S11306902CF481E090E09DA38CA33FC020E03FEFC9
S11306A04FE757E468A179A18AA19BA10E94A30DF9
S11306B018164CF520E030E040E251E46C8D7D8D5D
S11306C08E8D9F8D0E94A80DDC01CB01BC01CD0154
S11306D00E94FF0CDC01CB019DA38CA30FC080E919
S11306E091E09FA38EA38EA19FA10197F1F79FA3F1
S11306F08EA38CA19DA101979DA38CA38CA19DA1E8
S1130700892B69F73FC068A179A18AA19BA10E94A6
S1130710FF0CDC01CB019DA38CA38CA19DA199A707
S113072088A788A599A50197F1F799A788A72AC052
S113073020E030E04FE753E46B897C898D899E8902
S11307400E94A30D1816ACF46F89788D898D9A8D4B
S11307500E94FF0CDC01CB019BA78AA78AA59BA55D
S11307609DA78CA78CA59DA50197F1F79DA78CA7A4
S11307700FC06B897C898D899E890E94FF0CDC01E6
S1130780CB018B8F8B8D8EA78EA58A95F1F78EA7C3
S113079040E062E080E00E947A0180E090E0A0E026
S11307A0B0E48D839E83AF83B88720E030E04AE7CE
S11307B055E46D817E818F8198850E94A80DDC01AE
S11307C0CB0189879A87AB87BC8720E030E040E87B
S11307D05FE369857A858B859C850E94880C8823D4
S11307E02CF481E090E09E878D873FC020E03FEFAE
S11307F04FE757E469857A858B859C850E94A30D14
S113080018164CF520E030E040E251E46D817E8121
S11308108F8198850E94A80DDC01CB01BC01CD011C
S11308200E94FF0CDC01CB019E878D870FC080E9FD
S113083091E0988B8F878F8598890197F1F7988B32
S11308408F878D859E8501979E878D878D859E8553
S1130850892B69F714C069857A858B859C850E94EC
S1130860FF0CDC01CB019E878D878D859E859A8B3D
S1130870898B89899A890197F1F79A8B898B000072
S1130880AE960FB6F894DEBF0FBECDBFDF91CF9109
S11308900895CF93DF93CDB7DEB7EC970FB6F894F6
S11308A0DEBF0FBECDBF41E063E080E00E9449009F
S11308B041E062E080E00E94490041E060E081E0C4
S11308C00E94490041E061E081E00E94490041E06A
S11308D062E081E00E94490041E063E081E00E941F
S11308E0490080E090E0A0EAB1E489839A83AB8375
S11308F0BC8320E030E04AE755E469817A818B814A
S11309009C810E94A80DDC01CB018BAB9CABADABF1
S1130910BEAB20E030E040E85FE36BA97CA98DA981
S11309209EA90E94880C88232CF481E090E098AF63
S11309308FAB3FC020E03FEF4FE757E46BA97CA9A2
S11309408DA99EA90E94A30D18164CF520E030E055
S113095040E251E469817A818B819C810E94A80DD7
S1130960DC01CB01BC01CD010E94FF0CDC01CB01F9
S113097098AF8FAB0FC080E991E09AAF89AF89AD92
S11309809AAD0197F1F79AAF89AF8FA998AD019706
S113099098AF8FAB8FA998AD892B69F714C06BA959
S11309A07CA98DA99EA90E94FF0CDC01CB0198AF04
S11309B08FAB8FA998AD9CAF8BAF8BAD9CAD0197DE
S11309C0F1F79CAF8BAF83E00E94660680E090E075
S11309D0A0EAB0E48D839E83AF83B88720E030E043
S11309E04AE755E46D817E818F8198850E94A80D28
S11309F0DC01CB0189A79AA7ABA7BCA720E030E014
S1130A0040E85FE369A57AA58BA59CA50E94880CA4
S1130A1088232CF481E090E09EA78DA73FC020E0BE
S1130A203FEF4FE757E469A57AA58BA59CA50E94E3
S1130A30A30D18164CF520E030E040E251E46D813E
S1130A407E818F8198850E94A80DDC01CB01BC01B9
S1130A50CD010E94FF0CDC01CB019EA78DA70FC026
S1130A6080E991E098AB8FA78FA598A90197F1F73A
S1130A7098AB8FA78DA59EA501979EA78DA78DA541
S1130A809EA5892B69F714C069A57AA58BA59CA599
S1130A900E94FF0CDC01CB019EA78DA78DA59EA50E
S1130AA09AAB89AB89A99AA90197F1F79AAB89AB5B
S1130AB083E00E94660680E090E0A8ECB2E48987B7
S1130AC09A87AB87BC872BEA3AEA4AEA50E46985FD
S1130AD07A858B859C850E94A80DDC01CB018D87CE
S1130AE09E87AF87B88B20E030E040E850E469850A
S1130AF07A858B859C850E94A80DDC01CB01898BAE
S1130B009A8BAB8BBC8B20E030E040E85FE36D85D3
S1130B107E858F8598890E94880C88231CF481E047
S1130B208D8BB2C020E03FEF4FE757E469897A89A3
S1130B308B899C890E94A30D18160CF07BC020E0C1
S1130B4030E04AE754E469857A858B859C850E9468
S1130B508D0CDC01CB018E8B9F8BA88FB98F20E08D
S1130B6030E04AE755E46E897F89888D998D0E942B
S1130B70A80DDC01CB018A8F9B8FAC8FBD8F20E049
S1130B8030E040E85FE36A8D7B8D8C8D9D8D0E9403
S1130B90880C88232CF481E090E09F8F8E8F3FC0D7
S1130BA020E03FEF4FE757E46A8D7B8D8C8D9D8D60
S1130BB00E94A30D18164CF520E030E040E251E409
S1130BC06E897F89888D998D0E94A80DDC01CB01E7
S1130BD0BC01CD010E94FF0CDC01CB019F8F8E8FE5
S1130BE00FC080E991E099A388A388A199A10197F6
S1130BF0F1F799A388A38E8D9F8D01979F8F8E8F78
S1130C008E8D9F8D892B69F73FC06A8D7B8D8C8D6E
S1130C109D8D0E94FF0CDC01CB019F8F8E8F8E8DEA
S1130C209F8D9BA38AA38AA19BA10197F1F79BA304
S1130C308AA32AC020E030E04FE753E46D857E8527
S1130C408F8598890E94A30D1816ACF469897A8956
S1130C508B899C890E94FF0CDC01CB019DA38CA392
S1130C608CA19DA19FA38EA38EA19FA10197F1F7B3
S1130C709FA38EA30FC06D857E858F8598890E9462
S1130C80FF0CDC01CB018D8B8D8988A788A58A9503
S1130C90F1F788A783E00E94660682E00E94660658
S1130CA088E20E9466068CE00E9466060E94FC07A9
S1130CB060E080E00E949C070000EC960FB6F89478
S1130CC0DEBF0FBECDBFDF91CF910895CF93DF93E9
S1130CD0CDB7DEB72F970FB6F894DEBF0FBECDBFEA
S1130CE08F8780E090E0A0E8BFE389839A83AB8399
S1130CF0BC8320E030E04AE755E469817A818B8146
S1130D009C810E94A80DDC01CB018D839E83AF835F
S1130D10B88720E030E040E85FE36D817E818F8119
S1130D2098850E94880C88232CF481E090E09A87AF
S1130D3089873FC020E03FEF4FE757E46D817E8114
S1130D408F8198850E94A30D18164CF520E030E0A1
S1130D5040E251E469817A818B819C810E94A80DD3
S1130D60DC01CB01BC01CD010E94FF0CDC01CB01F5
S1130D709A8789870FC080E991E09C878B878B8550
S1130D809C850197F1F79C878B8789859A850197C4
S1130D909A87898789859A85892B69F714C06D811B
S1130DA07E818F8198850E94FF0CDC01CB019A879C
S1130DB0898789859A859E878D878D859E850197EC
S1130DC0F1F79E878D8740E063E080E00E947A011E
S1130DD08F8582958F708170482F60E081E00E943A
S1130DE07A018F858295869587708170482F61E09E
S1130DF081E00E947A018F8582958695869583701D
S1130E008170482F62E081E00E947A018F85881FFB
S1130E108827881F482F63E081E00E947A010E949E
S1130E20CA028F858170482F60E081E00E947A01B8
S1130E308F8586958170482F61E081E00E947A0158
S1130E408F85869586958170482F62E081E00E94A7
S1130E507A018F858695869586958170482F63E003
S1130E6081E00E947A010E94CA0200002F960FB608
S1130E70F894DEBF0FBECDBFDF91CF910895CF931D
S1130E80DF931F92CDB7DEB7898341E063E080E052
S1130E900E947A01898182958F708170482F60E069
S1130EA081E00E947A01898182958695877081709C
S1130EB0482F61E081E00E947A01898182958695BC
S1130EC0869583708170482F62E081E00E947A01E8
S1130ED08981881F8827881F482F63E081E00E944A
S1130EE07A010E94CA0289818170482F60E081E002
S1130EF00E947A01898186958170482F61E081E0A2
S1130F000E947A018981869586958170482F62E0D6
S1130F1081E00E947A018981869586958695817003
S1130F20482F63E081E00E947A010E94CA02000017
S1130F300F90DF91CF910895CF93DF9300D0CDB779
S1130F40DEB789836A838981882F90E08130910597
S1130F5089F0823091051CF4892B39F01AC0823053
S1130F60910569F0039781F014C08A8180580E942A
S1130F7066060FC08A8180540E9466060AC08A8170
S1130F808C560E94660605C08A818C520E946606B1
S1130F90000000000F900F90DF91CF910895CF9340
S1130FA0DF931F92CDB7DEB7898389810E943F0703
S1130FB000000F90DF91CF910895CF93DF9300D07D
S1130FC0CDB7DEB79A8389830BC089819A81FC01EE
S1130FD080810E94CF0789819A8101969A838983AF
S1130FE089819A81FC018081882379F700000F9020
S1130FF00F90DF91CF910895CF93DF9300D0CDB7B9
S1131000DEB719821A821A8228C08A81882F90E05A
S11310100896880F880F880F0E946606198217C0E9
S11310208A81282F30E08981882F90E0220F331F96
S1131030220F331F220F331F820F931F805A9F4F9B
S1131040FC0180810E94CF0789818F5F8983898118
S1131050883030F38A818F5F8A838A818830A8F24E
S113106000000F900F90DF91CF910895CF93DF93FD
S1131070CDB7DEB72E970FB6F894DEBF0FBECDBF47
S113108081E00E94660680E090E0A0EAB0E48983F3
S11310909A83AB83BC8320E030E04AE755E469815E
S11310A07A818B819C810E94A80DDC01CB018D8308
S11310B09E83AF83B88720E030E040E85FE36D8132
S11310C07E818F8198850E94880C88232CF481E08E
S11310D090E09A8789873FC020E03FEF4FE757E4CD
S11310E06D817E818F8198850E94A30D18164CF521
S11310F020E030E040E251E469817A818B819C8177
S11311000E94A80DDC01CB01BC01CD010E94FF0CA3
S1131110DC01CB019A8789870FC080E991E09C8725
S11311208B878B859C850197F1F79C878B878985B5
S11311309A8501979A87898789859A85892B69F782
S113114014C06D817E818F8198850E94FF0CDC0123
S1131150CB019A87898789859A859E878D878D8516
S11311609E850197F1F79E878D8700002E960FB616
S1131170F894DEBF0FBECDBFDF91CF910895CF931A
S1131180DF93CDB7DEB70000DF91CF910895CF9301
S1131190DF9300D01F92CDB7DEB79B838A83198279
S11311A08981882F90E02A813B81820F931FFC0163
S11311B080810E94770A1092BB0000008091BB00DE
S11311C08823E1F38091BC008130A9F58981882FBF
S11311D090E02A813B81820F931FFC0180810E9451
S11311E0770A89818F5F89831092BB000000809108
S11311F0BB008823E1F38981882F90E001972A813D
S11312003B81820F931FFC0180818332F9F683E2D4
S11312100E94770A8981882F90E001972A813B8177
S1131220820F931FFC0110821092BC001092BB002D
S113123081E08093BD0000000F900F900F90DF912C
S1131240CF910895CF93DF9300D01F92CDB7DEB72F
S11312509B838A8319828091BB00813009F042C04C
S11312608981882F90E02A813B81820F931F2091EE
S1131270BA00FC0120838EE50E94770A89818F5F82
S113128089831092BB000CC08981882F90E001975C
S11312902A813B81820F931FFC018081882329F0DE
S11312A08091BB00882381F301C000008981882FCD
S11312B090E001972A813B81820F931FFC0180817A
S11312C0882371F61092BD001092BB006FEB78E09A
S11312D080EA90E00E942F0B8A819B816FEB78E07B
S11312E00E942F0B00000F900F900F90DF91CF9171
S11312F00895CF93DF9300D000D0CDB7DEB79B83A2
S11313008A836C8319820E94360883EA90E00E94E3
S1131310DD0764E081E00E949C078A819B810E9432
S1131320DD078A819B819093B9008093B80081E0A6
S11313308093BC008C81882F90E001972A813B81A7
S1131340820F931FFC0110828C81882F90E02A81E8
S11313503B81820F931F23E2FC0120838C818F5FEA
S1131360898317C08981882F90E02A813B81820F6D
S1131370931F2981222F30E0215031094A815B815A
S1131380240F351FF9012081FC01208389818150BC
S113139089838981882331F78A819B812EE3FC012B
S11313A0208380EA90E00E94F50A8A819B810E9452
S11313B0F50A00000F900F900F900F90DF91CF91DE
S11313C00895CF93DF93CDB7DEB70E94490441E07F
S11313D062E083E00E94490041E062E083E00E9411
S11313E07A0141E061E083E00E94490087E690E0F1
S11313F00E94C00A89E799E00E94670B8091B800B7
S11314009091B9006FEB78E00E942F0B84E29AE090
S11314100E94350A78941092BC001092BB0080910F
S1131420BC00813061F462E083E00E945602809146
S1131430B8009091B9000E94C7081092BC008CEDCE
S113144090E00E942209EBCFCF93DF931F92CDB798
S1131450DEB7898389818093BA0081E08093BB00E1
S113146000000F90DF91CF910895CF93DF9300D0C8
S1131470CDB7DEB79A83898340E065E081E00E94BE
S1131480490040E064E081E00E94490040E067E0F8
S113149081E00E94490041E066E081E00E94490049
S11314A08DE290E02DE230E0F90120812064FC011E
S11314B020838DE290E02DE230E0F90120812F7E3F
S11314C0FC0120838DE290E02DE230E0F9012081DF
S11314D02068FC01208389819A819093F100809394
S11314E0F00000000F900F90DF91CF910895CF93FB
S11314F0DF931F92CDB7DEB789838FE290E0298115
S1131500FC01208300000F90DF91CF9108951F927A
S11315100F9200905F000F9211242F933F934F93EB
S11315205F936F937F938F939F93AF93BF93EF9347
S1131530FF93CF93DF931F92CDB7DEB78FE290E096
S1131540FC01808189832091F0003091F100898130
S1131550F901099500000F90DF91CF91FF91EF9170
S1131560BF91AF919F918F917F916F915F914F91B7
S11315703F912F910F9000925F000F901F9018954C
S1131580CF93DF9300D0CDB7DEB79A83898380E40D
S113159090E029813A81232F3327FC01208389E2BB
S11315A090E02981FC0120838AE290E02AE230E085
S11315B0F90120812061FC0120838AE290E02AE283
S11315C030E0F90120812860FC01208380E490E070
S11315D020E430E0F9012081266AFC012083000028
S11315E00F900F90DF91CF910895CF93DF9300D0A8
S11315F01F92CDB7DEB79B838A8319821EC0000079
S11316008BE290E0FC018081829586958770882F1B
S113161090E081709927892B99F38CE290E02981DD
S1131620222F30E04A815B81240F351FF90120818C
S1131630FC01208389818F5F89838981882F90E0D1
S11316402A813B81820F931FFC0180818823B9F694
S113165000000F900F900F90DF91CF910895CF93DA
S1131660DF9300D000D0CDB7DEB79A8389837C8323
S11316706B838B819C81892B11F189819A81909351
S1131680C5008093C4008B819C819093BF0080939C
S1131690BE008CE290E02091C4003091C500F901B5
S11316A02081FC01208381E08093C2008AE290E0E3
S11316B02AE230E0F90120812064FC01208300004B
S11316C00F900F900F900F90DF91CF910895CF93CB
S11316D0DF9300D0CDB7DEB79A83898389819A815D
S11316E0892B91F081E08093C30089819A81909342
S11316F0C1008093C0008AE290E02AE230E0F90160
S113170020812068FC01208300000F900F90DF915E
S1131710CF9108951F920F9200905F000F921124B1
S11317202F933F934F935F936F937F938F939F93E5
S1131730AF93BF93EF93FF93CF93DF93CDB7DEB710
S11317408091C300882309F44BC08091DA00882378
S113175031F08091DA00882F90E0019702C080E098
S113176090E08A539F4FFC0180818D30F9F0809185
S1131770DA008431D8F48091DA00882F90E02CE2EA
S113178030E0F90120818A539F4FFC0120838AE2D3
S113179090E02AE230E0F90120812068FC012083F6
S11317A08091DA008F5F8093DA001AC08CE290E0B7
S11317B0FC0180818091DA00882F90E001978A53A0
S11317C09F4FFC0110822091C0003091C100809194
S11317D0DA00682F86EC90E0F90109951092DA009E
S11317E00000DF91CF91FF91EF91BF91AF919F9155
S11317F08F917F916F915F914F913F912F910F90B6
S113180000925F000F901F9018951F920F92009006
S11318105F000F9211242F933F934F935F936F9325
S11318207F938F939F93AF93BF93EF93FF93CF9344
S1131830DF93CDB7DEB78AE290E02AE230E0F90127
S113184020812F7BFC0120838091C200882309F42E
S113185044C08091DB008F5F8093DB002091C40043
S11318603091C5008091DB00882F90E0820F931F98
S1131870FC0180818823D1F08CE290E04091C40087
S11318805091C5002091DB00222F30E0240F351F3A
S1131890F9012081FC0120838AE290E02AE230E011
S11318A0F90120812064FC0120831DC01092DB001B
S11318B08AE290E02AE230E0F90120812F7BFC01EA
S11318C020838091BE009091BF00FC010995809116
S11318D0C2008F5F8093C20006C08091BE009091C9
S11318E0BF00FC0109950000DF91CF91FF91EF91BA
S11318F0BF91AF919F918F917F916F915F914F9124
S11319003F912F910F9000925F000F901F901895B8
S11319100E942E0D08F481E008950E94A10C0C94FD
S1131920690D0E94620D58F00E945B0D40F029F48D
S11319305F3F29F00C94520D51110C949D0D0C94A1
S1131940580D0E947A0D68F39923B1F3552391F34E
S1131950951B550BBB27AA2762177307840738F01A
S11319609F5F5F4F220F331F441FAA1FA9F335D077
S11319700E2E3AF0E0E832D091505040E695001C2B
S1131980CAF72BD0FE2F29D0660F771F881FBB1FE5
S1131990261737074807AB07B0E809F0BB0B802DC3
S11319A0BF01FF2793585F4F3AF09E3F510578F0EF
S11319B00C94520D0C949D0D5F3FE4F3983ED4F3C8
S11319C0869577956795B795F7959F5FC9F7880FC3
S11319D0911D9695879597F90895E1E0660F771F15
S11319E0881FBB1F621773078407BA0720F0621BA6
S11319F0730B840BBA0BEE1F88F7E09508950E94D1
S1131A00820D88F09F5798F0B92F9927B751B0F0FD
S1131A10E1F0660F771F881F991F1AF0BA95C9F76E
S1131A2014C0B13091F00E949C0DB1E008950C9463
S1131A309C0D672F782F8827B85F39F0B93FCCF316
S1131A40869577956795B395D9F73EF490958095EB
S1131A50709561957F4F8F4F9F4F0895990F0008A0
S1131A60550FAA0BE0E8FEEF16161706E807F9076C
S1131A70C0F012161306E407F50798F0621B730B07
S1131A80840B950B39F40A2661F0232B242B252B88
S1131A9021F408950A2609F4A140A6958FEF811D2B
S1131AA0811D089597F99F6780E870E060E00895CC
S1131AB09FEF80EC089500240A9416161706180662
S1131AC00906089500240A9412161306140605063E
S1131AD00895092E0394000C11F4882352F0BB0FCF
S1131AE040F4BF2B11F460FF04C06F5F7F4F8F4F32
S1131AF09F4F089557FD9058440F551F59F05F3F6D
S1131B0071F04795880F97FB991F61F09F3F79F01B
S1131B1087950895121613061406551FF2CF46959D
S1131B20F1DF08C0161617061806991FF1CF86951F
S1131B307105610508940895E894BB276627772703
S1131B40CB0197F908950E942E0D08F48FEF0895A4
S1131B500E94BB0D0C94690D0E945B0D38F00E942D
S1131B60620D20F0952311F00C94520D0C94580D35
S1131B7011240C949D0D0E947A0D70F3959FC1F36E
S1131B80950F50E0551F629FF001729FBB27F00D27
S1131B90B11D639FAA27F00DB11DAA1F649F66277C
S1131BA0B00DA11D661F829F2227B00DA11D621FCB
S1131BB0739FB00DA11D621F839FA00D611D221F85
S1131BC0749F3327A00D611D231F849F600D211D69
S1131BD0822F762F6A2F11249F5750409AF0F1F0EC
S1131BE088234AF0EE0FFF1FBB1F661F771F881F55
S1131BF091505040A9F79E3F510580F00C94520D2E
S1131C000C949D0D5F3FE4F3983ED4F3869577954D
S1131C106795B795F795E7959F5FC1F7FE2B880FFA
S1111C20911D9695879597F90895F894FFCF36
S1131C2E0A1F1F1F1F0E0400000A0A0A110E0000CD
S1131C3E000E1F151F110E00041F1111111F1F1F5F
S1131C4E041F11111F1F1F1F041F111F1F1F1F1FF2
S1131C5E041F1F1F1F1F1F1F00000101050515155F
S1131C6E0D0A005265636569766564205374726962
S10B1C7E6E67202D2D200000EB
S9030000FC
