S014000050617373776F72644C6F636B2E7372656334
S11300000C942A000C9447000C9447000C9447006D
S11300100C942E080C9447000C9457080C948008F8
S11300200C9447000C9405080C9469070C94DC07A5
S11300300C9447000C9447000C9447000C94470020
S11300400C9447000C9447000C9447000C94470010
S11300500C94470011241FBECFE5D8E0DEBFCDBF0E
S113006011E0A0E6B0E0E2E4F2E102C005900D92F6
S1130070AC39B107D9F721E0ACE9B1E001C01D9278
S1130080A73CB207E1F70E949A050C941F090C944F
S1130090000080916000853040F081E08093620030
S11300A0809360000E94150708958F5F809360001D
S11300B00895CF93C82F0E943F0560E080E00E941E
S11300C0A40483EA90E00E94C304C130A1F48CEA42
S11300D090E00E94C30463E180E00E94A40480E0F5
S11300E00E94C00463E081E00E94A40483EB90E0DA
S11300F00E94C30415C083EC90E00E94C30463E132
S113010080E00E94A40481E00E94C00463E081E0D6
S11301100E94A40483EB90E00E94C304CC2389F0E2
S113012060E082E00E94A4048CEC90E00E94C3048E
S113013060E083E00E94A40487ED90E00E94C30481
S113014010C060E082E00E94A4048BEE90E00E9464
S1130150C30460E083E00E94A40487ED90E00E9461
S1130160C304CF9108950F931F93CF938C010E94E2
S11301703F0584EF90E00E94C30466E081E00E94A2
S1130180A404C0E00E94DC038F3F41F0F801EC0FAF
S1130190F11D8083CF5F8AE20E94C0042FEF81EEBD
S11301A094E0215080409040E1F700C00000C63048
S11301B048F3CF911F910F910895CF92DF92EF9260
S11301C0FF920F931F93CF930E943F0584E091E029
S11301D00E94C30466E070E080E090E00E9449055C
S11301E08BE091E00E94C30466E081E00E94A404D5
S11301F0C0E00E94DC038F3F49F0EC2FF0E0E356AF
S1130200FE4F8083CF5F8AE20E94C0042FEF81EE0D
S113021094E0215080409040E1F700C00000C630D7
S113022040F360E082E00E94A40488E191E00E942F
S1130230C30466E083E00E94A4040F2EFDE9EF2EC0
S1130240F1E0FF2EF02D6701C0E011E000E00E9414
S1130250DC038F3FA9F0F60191916F018913102FF0
S1130260CF5F8AE20E94C004FFEF21EE84E0F150E8
S113027020408040E1F700C00000C63019F0E7CF0D
S1130280C63028F3113009F052C00E943F0565E0E2
S113029081E00E94A40489E291E00E94C30460E02A
S11302A080EA0E94BC0280EA0E94D6028823E1F020
S11302B00E943F0563E080E00E94A40482E391E091
S11302C00E94C30465E082E00E94A4048EE391E0EE
S11302D00E94C3049FEFE7EAF1E69150E040F0404A
S11302E0E1F700C0000018C0C1EA8701F70160818E
S11302F08C2F0E94BC0203C08C2F0E94BC028C2F46
S11303000E94D602F80160816813F6CFFFEFEF1A5E
S1130310FF0ACF5FC73A49F72FEF83ED90E32150EF
S113032080409040E1F700C0000081E014C00E94CA
S11303303F0562E081E00E94A40489E491E00E9408
S1130340C304EFEFF3ED20E3E150F0402040E1F788
S113035000C0000080E0CF911F910F91FF90EF90BB
S1130360DF90CF9008950F931F93CF93E3EAF1E0CA
S113037088E0808385E08183CF010E94BB0663E22D
S113038074EF81E00E94310781E00E94150761E06B
S113039081E00E94510769E470E081E00E943F0718
S11303A081E00E94CD060E94A9080E94F4040E94E4
S11303B0ED02789480919C01813081F180EA0E9461
S11303C0D6028823D1F00E943F0560E081E00E94BC
S11303D0A4048AE591E00E94C3042FEF8DE399E41D
S11303E0215080409040E1F700C000000E94DD00F1
S11303F080939C01813011F711C00DE911E0C1EA2D
S11304008C2F0E94D602F80181938F01CF5FC73AE7
S1130410B9F71092A30181E080939C01809162005E
S11304200E945900CF911F910F910895CF93DF93AC
S113043000D000D000D0CDB7DEB7FE01319686E003
S1130440DF011D928A95E9F7809162009091610025
S1130450891731F00E9459008091620080936100F5
S11304600E94DC038133D9F580916200813099F5D3
S1130470CE0101960E94B300FE013196ADE9B1E0D0
S11304809E01295F3F4F41E050E091918D91981377
S1130490452FE217F307C9F7413031F41092620097
S11304A081E00E94CD065FC081E0809362000E94DB
S11304B03F058FE691E00E94C304BFEF23ED80E384
S11304C0B15020408040E1F700C0000080916200FC
S11304D00E94590048C081E08093620044C0823386
S11304E069F5CE0101960E94B300FE013196ADE993
S11304F0B1E09E01295F3F4F41E050E091918D9121
S11305009813452FE217F307C9F7413019F40E94F5
S1130510DD000FC00E943F058FE691E00E94C304F6
S11305209FEFA3EDB0E39150A040B040E1F700C0CD
S11305300000809162000E94590015C08F3F99F01D
S11305400E943F058EE791E00E94C3042FEF8DE2E5
S113055092E2215080409040E1F700C00000809179
S113056062000E94590026960FB6F894DEBF0FBEB3
S1130570CDBFDF91CF910895CF93DF93D82FC62FAE
S11305800E94AF0880E50E94D8088D2F0E94CD08F4
S11305908C2F0E94CD080E94C9088FE39FE1019728
S11305A0F1F700C00000DF91CF910895CF93C82FD9
S11305B00E94AF0880E50E94D8088C2F0E94CD08C5
S11305C00E94BC0880E50E94E7080E94F208C82F38
S11305D00E94C9088C2FCF91089541E065E082E024
S11305E00E949F0541E064E082E00E949F0541E093
S11305F063E082E00E949F0541E062E082E00E94A5
S11306009F0540E067E083E00E949F0540E066E0CC
S113061083E00E949F0540E065E083E00E949F051F
S113062040E063E083E00E949F0540E065E082E0F3
S11306300E941C0640E064E082E00E941C0640E048
S113064063E082E00E941C0640E062E082E00E94D7
S11306501C06089567E083E00E9489068823A9F0B8
S113066066E083E00E948906882389F065E083E0E0
S11306700E948906882369F063E083E00E9489066A
S113068091E0882339F090E005C091E003C091E047
S113069001C091E0892F0895CF9367E083E00E9421
S11306A089068823A1F066E083E00E9489068823F6
S11306B081F065E083E00E948906882361F063E0AD
S11306C083E00E948906811108C0C4E007C0C1E02C
S11306D005C0C2E003C0C3E001C0C0E041E065E082
S11306E082E00E941C0641E064E082E00E941C0655
S11306F041E063E082E00E941C0641E062E082E0A7
S11307000E941C068C2FCF9108951F93CF93DF93E3
S1130710C82F40E065E082E00E941C060E944C0362
S1130720182F41E065E082E00E941C0640E064E08E
S113073082E00E941C060E944C03C81729F0D1E0F5
S11307401C1719F0D0E001C0D2E041E064E082E07F
S11307500E941C0640E063E082E00E941C060E94A6
S11307604C03C81301C0D3E041E063E082E00E947F
S11307701C0640E062E082E00E941C060E944C03DA
S1130780C81301C0D4E040E065E082E00E941C068A
S113079040E064E082E00E941C0640E063E082E006
S11307A00E941C0640E062E082E00E941C068D2F3D
S11307B0DF91CF911F910895CF930E942A03813036
S11307C0D9F40E944C03C82F0E9485032FEF31EE09
S11307D094E0215030409040E1F700C00000E82F41
S11307E0F0E0EE0FFF1FEE0FFF1FE957FE4FEC0F77
S11307F0F11D3197808101C08FEFCF91089541E0C1
S113080062E080E00E941C0685E08A95F1F7000012
S113081040E062E080E00E941C068FE39FE10197C4
S1130820F1F700C000000895CF93C82F8FE99FE02F
S11308300197F1F700C0000040E063E080E00E940F
S11308401C06C4FB442740F960E081E00E941C06BA
S1130850C5FB442740F961E081E00E941C06C6FB09
S1130860442740F962E081E00E941C064C2F441F9B
S11308704427441F64E081E00E941C060E94FF0399
S11308804C2F417060E081E00E941C06C1FB4427AC
S113089040F961E081E00E941C06C2FB442740F954
S11308A062E081E00E941C06C3FB442740F964E037
S11308B081E00E941C060E94FF03CF910895CF930C
S11308C0C82F41E063E080E00E941C06C4FB44277B
S11308D040F960E081E00E941C06C5FB442740F912
S11308E061E081E00E941C06C6FB442740F962E0F7
S11308F081E00E941C064C2F441F4427441F64E0DF
S113090081E00E941C060E94FF034C2F417060E0AE
S113091081E00E941C06C1FB442740F961E081E0AC
S11309200E941C06C2FB442740F962E081E00E9459
S11309301C06C3FB442740F964E081E00E941C06C6
S11309400E94FF03CF910895813059F028F082303E
S113095069F0833081F0089580E8860F0E941404C2
S1130960089580EC860F0E941404089584E9860F8C
S11309700E941404089584ED860F0E9414040895BF
S11309800E945F040895CF93DF93EC01888188234C
S113099031F021960E945F0489918111FBCFDF9190
S11309A0CF910895FF920F931F93CF93DF93C3E6E4
S11309B0D0E06894FF24F6F88F2D0E9414048E0171
S11309C0085F1F4F89910E945F04C017D107D1F7B8
S11309D088E0F80EE80180E8F812EECFDF91CF91BD
S11309E01F910F91FF90089541E063E080E00E9421
S11309F09F0541E062E080E00E949F0541E060E0E5
S1130A0081E00E949F0541E061E081E00E949F0532
S1130A1041E062E081E00E949F0541E064E081E002
S1130A200E949F052FEF89EF90E021508040904075
S1130A30E1F700C0000083E00E9414048FE19EE40B
S1130A400197F1F700C0000083E00E9414048FE8CE
S1130A5091E00197F1F700C0000083E00E941404C4
S1130A6082E00E94140488E20E9414048CE00E9434
S1130A7014040E94D20480E80E941404089581E0C2
S1130A800E9414048FE19EE40197F1F700C0000076
S1130A900895CF92DF92EF92FF921F93CF93DF934B
S1130AA0CDB7DEB72C970FB6F894DEBF0FBECDBF1F
S1130AB0611571058105910521F480E30E945F04AD
S1130AC02BC010E00F2EFAE0CF2ED12CE12CF12C0C
S1130AD0F02D1F5FA70196010E94FD08E1E0F0E000
S1130AE0EC0FFD1FE10FF11D605D6083622F732F1A
S1130AF0842F952F611571058105910551F71123F7
S1130B0059F0E1E0F0E0EC0FFD1FE10FF11D8081F1
S1130B100E945F041150A9F72C960FB6F894DEBF1B
S1130B200FBECDBFDF91CF911F91FF90EF90DF906B
S1130B30CF9008950E94B3010E941602FDCF813028
S1130B4021F130F08230F1F1833009F458C0089576
S1130B50413059F42AB381E090E002C0880F991F14
S1130B606A95E2F7822B8ABB08952AB381E090E06C
S1130B7002C0880F991F6A95E2F78095922F9823F7
S1130B809ABB9BB389238BBB0895413059F427B397
S1130B9081E090E002C0880F991F6A95E2F7822BEA
S1130BA087BB089527B381E090E002C0880F991FA6
S1130BB06A95E2F78095922F982397BB98B389237F
S1130BC088BB0895413059F424B381E090E002C019
S1130BD0880F991F6A95E2F7822B84BB089524B38A
S1130BE081E090E002C0880F991F6A95E2F7809532
S1130BF0922F982394BB95B3892385BB08954130E4
S1130C0059F421B381E090E002C0880F991F6A95DE
S1130C10E2F7822B81BB089521B381E090E002C00A
S1130C20880F991F6A95E2F78095922F982391BBBC
S1130C3092B3892382BB0895813001F130F0823070
S1130C40B1F1833009F44CC0089541110CC02BB3A9
S1130C5081E090E002C0880F991F6A95E2F78095C1
S1130C6082238BBB08952BB381E090E002C0880FF0
S1130C70991F6A95E2F7822B8BBB089541110CC032
S1130C8028B381E090E002C0880F991F6A95E2F7CB
S1130C908095822388BB089528B381E090E002C048
S1130CA0880F991F6A95E2F7822B88BB089541113A
S1130CB00CC025B381E090E002C0880F991F6A95AB
S1130CC0E2F78095822385BB089525B381E090E007
S1130CD002C0880F991F6A95E2F7822B85BB08959D
S1130CE041110CC022B381E090E002C0880F991F2B
S1130CF06A95E2F78095822382BB089522B381E04E
S1130D0090E002C0880F991F6A95E2F7822B82BB9C
S1130D100895683060F5813079F028F08230A9F0C8
S1130D208330E1F026C089B390E002C095958795A1
S1130D306A95E2F78170089586B390E002C09595B4
S1130D4087956A95E2F78170089583B390E002C0B5
S1130D50959587956A95E2F78170089580B390E040
S1130D6002C0959587956A95E2F78170089581E0B0
S1130D70089581E00895009779F09093AA018093F3
S1130D80A9011FBCE091A901F091AA0180818830DA
S1130D9019F48EB588608EBD08958130B1F018F0D5
S1130DA0823039F108958091B7019091B801892B6F
S1130DB0D9F183B7887F83BF93B7E091B701F091EE
S1130DC0B8018181892B83BF08958091A9019091F5
S1130DD0AA01892B49F18EB5887F8EBD1FBC1EBC2C
S1130DE09EB5E091A901F091AA018181892B8EBD64
S1130DF008958091A7019091A801892BA9F085B548
S1130E00887F85BD95B5E091A701F091A801818106
S1130E10892B85BDE091A701F091A80180818823E9
S1130E2019F002B400FCFDCF0895813041F018F0B0
S1130E30823049F0089583B7887F83BF08958EB5C3
S1130E40887F8EBD089585B5887F85BDE091A70113
S1130E50F091A8018081882319F002B400FCFDCF31
S1130E600895882319F0813039F008956F3F710592
S1130E7009F020F46CBF08957BBD6ABD0895611527
S1130E80710571F0882319F0813031F00895709361
S1130E90C4016093C30108957093C6016093C501B2
S1130EA00895882319F0813049F0089589B78D7F1A
S1130EB089BF89B7660F682B69BF089589B78F7E8C
S1130EC089BF89B790E1699FB0011124682B69BF7C
S1130ED008951F920F920FB60F9211242F933F93F0
S1130EE04F935F936F937F938F939F93AF93BF932E
S1130EF0EF93FF938091B60181111BC08091A501EE
S1130F009091A6012091B4013091B5018217930705
S1130F1030F401969093A6018093A5013AC0E09124
S1130F20C301F091C40109951092A6011092A50184
S1130F3030C08130F1F48091A5019091A6012091F7
S1130F40B4013091B5018217930730F40196909360
S1130F50A6018093A5011DC0E091BF01F091C001DD
S1130F6009951092A6011092A50180E00E94150730
S1130F7010C08091B301811107C08091AB018CBF77
S1130F8081E08093B30105C08091AF018CBF1092C2
S1130F90B30182E088BFFF91EF91BF91AF919F9120
S1130FA08F917F916F915F914F913F912F910F900E
S1130FB00FBE0F901F9018951F920F920FB60F92AD
S1130FC011242F933F934F935F936F937F938F934A
S1130FD09F93AF93BF93EF93FF93E091C101F0917F
S1130FE0C201099581E088BFFF91EF91BF91AF9154
S1130FF09F918F917F916F915F914F913F912F912D
S11310000F900FBE0F901F9018951F920F920FB65E
S11310100F9211242F933F934F935F936F937F937A
S11310208F939F93AF93BF93EF93FF93E091BB0193
S1131030F091BC01099584E088BFFF91EF91BF91C5
S1131040AF919F918F917F916F915F914F913F915C
S11310502F910F900FBE0F901F9018951F920F9213
S11310600FB60F9211242F933F934F935F936F9377
S11310707F938F939F93AF93BF93EF93FF93E091ED
S1131080BD01F091BE01099580E488BFFF91EF9105
S1131090BF91AF919F918F917F916F915F914F918C
S11310A03F912F910F900FBE0F901F9018951F9294
S11310B00F920FB60F9211242F933F934F935F9388
S11310C06F937F938F939F93AF93BF93EF93FF930C
S11310D0E091B901F091BA01099580E288BFFF91CE
S11310E0EF91BF91AF919F918F917F916F915F919C
S11310F04F913F912F910F900FBE0F901F90189515
S11311001F920F920FB60F9211242F933F934F9378
S11311105F936F937F938F939F93AF93BF93EF935B
S1131120FF93E091C501F091C601099580E188BF64
S1131130FF91EF91BF91AF919F918F917F916F91AB
S11311405F914F913F912F910F900FBE0F901F9081
S113115018958CE080B986B7846086BF089586B7F9
S1131160806A86BF06B607FEFDCF91B1987F81E005
S1131170983009F080E0089586B7806A86BF06B685
S113118007FEFDCF91B1987F81E0903109F080E0B6
S1131190089586B7806986BF089583B986B78F7D21
S11311A086BF86B7806886BF06B607FEFDCF089562
S11311B0880F83B986B7806886BF06B607FEFDCF61
S11311C091B1987F81E0983109F080E00895880F0B
S11311D081600E94CD0891B1987F81E0903409F03C
S11311E080E0089586B78F7D86BF86B7806886BF06
S11311F006B607FEFDCF83B10895A1E21A2EAA1BFD
S1131200BB1BFD010DC0AA1FBB1FEE1FFF1FA217B2
S1131210B307E407F50720F0A21BB30BE40BF50BAF
S1131220661F771F881F991F1A9469F76095709538
S1131230809590959B01AC01BD01CF010895F89470
S1051240FFCFDA
S1131242010101000E0A0A1F1F1F1F1E1210081F90
S11312521F1F1F000E1F151F110E00041F11111155
S11312621F1F1F041F11111F1F1F1F041F111F1FE8
S11312721F1F1F041F1F1F1F1F1F1F000001010527
S11312820515155374617465203A20004C6F636B25
S113129265640053656C656374204F6E65206F66E8
S11312A23A2000556E6C6F636B656400312D2055D6
S11312B26E6C6F636B2000322D204368616E67652C
S11312C22050617373776F72642000312D204C6F4C
S11312D2636B2000456E7465722050617373776F7F
S11312E272642000456E74657220002D646967691A
S11312F27420506173733A005265706561742050B2
S1131302617373776F72642000476F6F642E2E2EA1
S11313122000454550524F4D204641494C00506FE4
S1131322776572204D6F6465004E6F742049646561
S11313326E746963616C2E2E2E0057656C636F6D3B
S11313426520746F20736166652061726561005760
S1131352726F6E672050617373776F726400577295
S11313626F6E672043686F696365003132334134BD
S10F1372353642373839434630454400D4
S9030000FC
