:100000000C942A000C9447000C9447000C94470071
:100010000C949C080C9447000C94C5080C94EE08B2
:100020000C9447000C9473080C94D7070C944A085E
:100030000C9447000C9447000C9447000C94470024
:100040000C9447000C9447000C9447000C94470014
:100050000C94470011241FBECFE5D8E0DEBFCDBF12
:1000600011E0A0E6B0E0EEE1F3E102C005900D92F0
:10007000AE3AB107D9F721E0AEEAB1E001C01D9276
:10008000A93DB207E1F70E9408060C948D090C9473
:100090000000DC01EFEAF1E045EB51E081E030E007
:1000A0002D9191912913832FE417F507C9F708952E
:1000B00080916000853040F081E080936200809301
:1000C00060000E94830708958F5F80936000089509
:1000D000CF93DF93D82FC62F0E94AD0560E080E05C
:1000E0000E94120583EA90E00E943105D13071F43C
:1000F0008CEA90E00E94310563E180E00E941205E5
:1001000080E00E942E05C11173C069C083EB90E0AE
:100110000E94310563E180E00E94120581E00E94A7
:100120002E05C1112BC063E081E00E9412058CEB0B
:1001300090E00E943105DD2349F060E082E00E94FA
:1001400012058CEC90E00E94310508C060E082E06E
:100150000E94120587ED90E00E94310560E083E087
:100160000E94120580EE90E00E94310563E183E079
:100170000E94120582E00E942E053CC0C130D1F5DC
:10018000DD2349F060E081E00E9412058CEC90E0F4
:100190000E94310508C060E081E00E94120587EDF1
:1001A00090E00E94310560E082E00E94120580EE3E
:1001B00090E00E94310563E182E00E94120560E058
:1001C00083E00E94120584EF90E00E94310563E114
:1001D00083E00E94120583E00E942E050BC063E0BD
:1001E00081E00E9412058CEB90E00E943105A5CFC2
:1001F000C13041F2DF91CF9108950F931F93CF93B8
:100200008C010E94AD0586E091E00E94310566E018
:1002100081E00E941205C0E00E944A048F3F41F035
:10022000F801EC0FF11D8083CF5F8AE20E942E055A
:100230002FEF81EE94E0215080409040E1F700C024
:100240000000C63048F3CF911F910F910895CF92CF
:10025000DF92EF92FF920F931F93CF930E94AD0511
:1002600086E191E00E94310566E070E080E090E078
:100270000E94B7058DE191E00E94310566E081E0C2
:100280000E941205C0E00E944A048F3F49F0EC2F03
:10029000F0E0E155FE4F8083CF5F8AE20E942E0599
:1002A0002FEF81EE94E0215080409040E1F700C0B4
:1002B0000000C63040F360E082E00E9412058AE24E
:1002C00091E00E94310566E083E00E9412050F2E46
:1002D000FFEAEF2EF1E0FF2EF02D6701C0E011E004
:1002E00000E00E944A048F3FA9F0F60191916F014E
:1002F0008913102FCF5F8AE20E942E05FFEF21EEB7
:1003000084E0F15020408040E1F700C00000C6309A
:1003100019F0E7CFC63028F3113009F052C00E941F
:10032000AD0565E081E00E9412058BE391E00E943B
:10033000310560E080EA0E942A0380EA0E944403BB
:100340008823E1F00E94AD0563E080E00E94120581
:1003500084E491E00E94310565E082E00E9412058C
:1003600080E591E00E9431059FEFE7EAF1E69150C8
:10037000E040F040E1F700C0000018C0C1EA87018A
:10038000F70160818C2F0E942A0303C08C2F0E94EA
:100390002A038C2F0E944403F80160816813F6CF72
:1003A000FFEFEF1AFF0ACF5FC73A49F72FEF83ED50
:1003B00090E3215080409040E1F700C0000081E0D0
:1003C00014C00E94AD0562E081E00E9412058BE539
:1003D00091E00E943105EFEFF3ED20E3E150F040B2
:1003E0002040E1F700C0000080E0CF911F910F9105
:1003F000FF90EF90DF90CF9008950F931F93CF93CE
:10040000E5EBF1E088E0808385E08183CF010E9405
:10041000290763E274EF81E00E949F0781E00E9458
:10042000830761E081E00E94BF0768E570E081E03A
:100430000E94AD0781E00E943B070E9417090E94BD
:1004400062050E945B0378948091AE01813081F156
:1004500080EA0E9444038823D1F00E94AD0560E049
:1004600081E00E9412058CE691E00E9431052FEF99
:100470008DE399E4215080409040E1F700C00000F6
:100480000E9427018093AE01813011F711C00FEA5D
:1004900011E0C1EA8C2F0E944403F80181938F017F
:1004A000CF5FC73AB9F71092B50181E08093AE01F2
:1004B00060E0809162000E946800CF911F910F91CF
:1004C0000895CF93DF9300D000D000D0CDB7DEB732
:1004D000FE01319686E0DF011D928A95E9F7809151
:1004E000620090916100891739F060E00E94680015
:1004F00080916200809361000E944A04813379F503
:1005000080916200813039F5CE0101960E94FD0094
:10051000CE0101960E944900813029F410926200B8
:100520000E943B078EC081E0809362000E94AD056F
:1005300081E891E00E943105BFEF23ED80E3B150E7
:1005400020408040E1F700C0000060E08091620040
:100550000E94680076C081E08093620072C082339E
:1005600011F5CE0101960E94FD00CE0101960E9478
:100570004900813019F40E9427010FC00E94AD0587
:1005800081E891E00E9431059FEFA3EDB0E3915027
:10059000A040B040E1F700C0000060E08091620040
:1005A0000E9468004EC0813431F460E080916200A6
:1005B0000E94680046C0843431F461E0809162009A
:1005C0000E9468003EC0833331F5CE0101960E943F
:1005D000FD00CE0101960E944900813039F46FEF91
:1005E00080EA0E942A030C9400002BC00E94AD05F3
:1005F00081E891E00E9431052FEF83ED90E32150D7
:1006000080409040E1F700C0000060E0809162000F
:100610000E94680016C08F3FA1F00E94AD0580E9DE
:1006200091E00E943105AFEFBDE222E2A150B0405F
:100630002040E1F700C0000060E0809162000E946D
:10064000680026960FB6F894DEBF0FBECDBFDF91CF
:10065000CF910895CF93DF93D82FC62F0E941D0905
:1006600080E50E9446098D2F0E943B098C2F0E9435
:100670003B090E9437098FE39FE10197F1F700C022
:100680000000DF91CF910895CF93C82F0E941D09DC
:1006900080E50E9446098C2F0E943B090E942A098E
:1006A00080E50E9455090E946009C82F0E94370901
:1006B0008C2FCF91089541E065E082E00E940D0605
:1006C00041E064E082E00E940D0641E063E082E0E8
:1006D0000E940D0641E062E082E00E940D0640E0CB
:1006E00067E083E00E940D0640E066E083E00E9440
:1006F0000D0640E065E083E00E940D0640E063E007
:1007000083E00E940D0640E065E082E00E948A06D8
:1007100040E064E082E00E948A0640E063E082E01C
:100720000E948A0640E062E082E00E948A06089504
:1007300067E083E00E94F7068823A9F066E083E083
:100740000E94F706882389F065E083E00E94F7069F
:10075000882369F063E083E00E94F70691E0882334
:1007600039F090E005C091E003C091E001C091E054
:10077000892F0895CF9367E083E00E94F7068823CE
:10078000A1F066E083E00E94F706882381F065E02F
:1007900083E00E94F706882361F063E083E00E9413
:1007A000F706811108C0C4E007C0C1E005C0C2E07F
:1007B00003C0C3E001C0C0E041E065E082E00E9408
:1007C0008A0641E064E082E00E948A0641E063E03C
:1007D00082E00E948A0641E062E082E00E948A068E
:1007E0008C2FCF9108951F93CF93DF93C82F40E0B4
:1007F00065E082E00E948A060E94BA03182F41E059
:1008000065E082E00E948A0640E064E082E00E94A7
:100810008A060E94BA03C81729F0D1E01C1719F004
:10082000D0E001C0D2E041E064E082E00E948A06AC
:1008300040E063E082E00E948A060E94BA03C81387
:1008400001C0D3E041E063E082E00E948A0640E01C
:1008500062E082E00E948A060E94BA03C81301C0C7
:10086000D4E040E065E082E00E948A0640E064E077
:1008700082E00E948A0640E063E082E00E948A06ED
:1008800040E062E082E00E948A068D2FDF91CF91E6
:100890001F910895CF930E9498038130D9F40E944C
:1008A000BA03C82F0E94F3032FEF31EE94E02150DA
:1008B00030409040E1F700C00000E82FF0E0EE0F7C
:1008C000FF1FEE0FFF1FE756FE4FEC0FF11D319794
:1008D000808101C08FEFCF91089541E062E080E018
:1008E0000E948A0685E08A95F1F7000040E062E008
:1008F00080E00E948A068FE39FE10197F1F700C034
:1009000000000895CF93C82F8FE99FE00197F1F77A
:1009100000C0000040E063E080E00E948A06C4FB63
:10092000442740F960E081E00E948A06C5FB442725
:1009300040F961E081E00E948A06C6FB442740F945
:1009400062E081E00E948A064C2F441F4427441F26
:1009500064E081E00E948A060E946D044C2F417081
:1009600060E081E00E948A06C1FB442740F961E013
:1009700081E00E948A06C2FB442740F962E081E0E0
:100980000E948A06C3FB442740F964E081E00E948C
:100990008A060E946D04CF910895CF93C82F41E03D
:1009A00063E080E00E948A06C4FB442740F960E0CF
:1009B00081E00E948A06C5FB442740F961E081E09E
:1009C0000E948A06C6FB442740F962E081E00E944B
:1009D0008A064C2F441F4427441F64E081E00E9494
:1009E0008A060E946D044C2F417060E081E00E94F5
:1009F0008A06C1FB442740F961E081E00E948A0633
:100A0000C2FB442740F962E081E00E948A06C3FBF2
:100A1000442740F964E081E00E948A060E946D0448
:100A2000CF910895813059F028F0823069F08330F9
:100A300081F0089580E8860F0E948204089580EC7A
:100A4000860F0E948204089584E9860F0E94820422
:100A5000089584ED860F0E94820408950E94CD04BB
:100A60000895CF93DF93EC018881882331F021969C
:100A70000E94CD0489918111FBCFDF91CF91089520
:100A8000FF920F931F93CF93DF93C3E6D0E0689458
:100A9000FF24F6F88F2D0E9482048E01085F1F4FFD
:100AA00089910E94CD04C017D107D1F788E0F80ED4
:100AB000E80180E8F812EECFDF91CF911F910F91FE
:100AC000FF90089541E063E080E00E940D0641E060
:100AD00062E080E00E940D0641E060E081E00E945B
:100AE0000D0641E061E081E00E940D0641E062E018
:100AF00081E00E940D0641E064E081E00E940D0665
:100B00002FEF89EF90E0215080409040E1F700C046
:100B1000000083E00E9482048FE19EE40197F1F7D8
:100B200000C0000083E00E9482048FE891E00197FA
:100B3000F1F700C0000083E00E94820482E00E947E
:100B4000820488E20E9482048CE00E9482040E9457
:100B5000400580E80E948204089581E00E9482049A
:100B60008FE19EE40197F1F700C000000895CF9255
:100B7000DF92EF92FF921F93CF93DF93CDB7DEB753
:100B80002C970FB6F894DEBF0FBECDBF611571056F
:100B90008105910521F480E30E94CD042BC010E073
:100BA0000F2EFAE0CF2ED12CE12CF12CF02D1F5F6F
:100BB000A70196010E946B09E1E0F0E0EC0FFD1F38
:100BC000E10FF11D605D6083622F732F842F952FDD
:100BD000611571058105910551F7112359F0E1E087
:100BE000F0E0EC0FFD1FE10FF11D80810E94CD04AC
:100BF0001150A9F72C960FB6F894DEBF0FBECDBFEB
:100C0000DF91CF911F91FF90EF90DF90CF900895EB
:100C10000E94FD010E946102FDCF813021F130F080
:100C20008230F1F1833009F458C00895413059F40D
:100C30002AB381E090E002C0880F991F6A95E2F71D
:100C4000822B8ABB08952AB381E090E002C0880F0E
:100C5000991F6A95E2F78095922F98239ABB9BB3D0
:100C600089238BBB0895413059F427B381E090E08C
:100C700002C0880F991F6A95E2F7822B87BB0895FF
:100C800027B381E090E002C0880F991F6A95E2F7D0
:100C90008095922F982397BB98B3892388BB08959A
:100CA000413059F424B381E090E002C0880F991FCD
:100CB0006A95E2F7822B84BB089524B381E090E02B
:100CC00002C0880F991F6A95E2F78095922F9823AA
:100CD00094BB95B3892385BB0895413059F421B362
:100CE00081E090E002C0880F991F6A95E2F7822B9D
:100CF00081BB089521B381E090E002C0880F991F65
:100D00006A95E2F78095922F982391BB92B389233D
:100D100082BB0895813001F130F08230B1F183302F
:100D200009F44CC0089541110CC02BB381E090E050
:100D300002C0880F991F6A95E2F7809582238BBBCA
:100D400008952BB381E090E002C0880F991F6A9547
:100D5000E2F7822B8BBB089541110CC028B381E0D0
:100D600090E002C0880F991F6A95E2F78095822370
:100D700088BB089528B381E090E002C0880F991FD6
:100D80006A95E2F7822B88BB089541110CC025B308
:100D900081E090E002C0880F991F6A95E2F7809584
:100DA000822385BB089525B381E090E002C0880FBF
:100DB000991F6A95E2F7822B85BB089541110CC0FB
:100DC00022B381E090E002C0880F991F6A95E2F794
:100DD0008095822382BB089522B381E090E002C017
:100DE000880F991F6A95E2F7822B82BB08956830BD
:100DF00060F5813079F028F08230A9F08330E1F09D
:100E000026C089B390E002C0959587956A95E2F770
:100E10008170089586B390E002C0959587956A9594
:100E2000E2F78170089583B390E002C095958795AD
:100E30006A95E2F78170089580B390E002C09595BD
:100E400087956A95E2F78170089581E0089581E0C1
:100E50000895009779F09093BC018093BB011FBC6B
:100E6000E091BB01F091BC018081883019F48EB50E
:100E700088608EBD08958130B1F018F0823039F16C
:100E800008958091C9019091CA01892BD9F183B746
:100E9000887F83BF93B7E091C901F091CA01818136
:100EA000892B83BF08958091BB019091BC01892B50
:100EB00049F18EB5887F8EBD1FBC1EBC9EB5E091EA
:100EC000BB01F091BC018181892B8EBD0895809179
:100ED000B9019091BA01892BA9F085B5887F85BDAC
:100EE00095B5E091B901F091BA018181892B85BD59
:100EF000E091B901F091BA018081882319F002B420
:100F000000FCFDCF0895813041F018F0823049F0A7
:100F1000089583B7887F83BF08958EB5887F8EBD7F
:100F2000089585B5887F85BDE091B901F091BA013A
:100F30008081882319F002B400FCFDCF0895882336
:100F400019F0813039F008956F3F710509F020F4F0
:100F50006CBF08957BBD6ABD08956115710571F080
:100F6000882319F0813031F008957093D601609391
:100F7000D50108957093D8016093D701089588230F
:100F800019F0813049F0089589B78D7F89BF89B7FD
:100F9000660F682B69BF089589B78F7E89BF89B7AF
:100FA00090E1699FB0011124682B69BF08951F92D9
:100FB0000F920FB60F9211242F933F934F935F938D
:100FC0006F937F938F939F93AF93BF93EF93FF9311
:100FD0008091C80181111BC08091B7019091B80127
:100FE0002091C6013091C7018217930730F4019612
:100FF0009093B8018093B7013AC0E091D501F09188
:10100000D60109951092B8011092B70130C0813015
:10101000F1F48091B7019091B8012091C60130910F
:10102000C7018217930730F401969093B80180931B
:10103000B7011DC0E091D101F091D2010995109244
:10104000B8011092B70180E00E94830710C0809120
:10105000C501811107C08091BD018CBF81E08093E3
:10106000C50105C08091C1018CBF1092C50182E00D
:1010700088BFFF91EF91BF91AF919F918F917F9129
:101080006F915F914F913F912F910F900FBE0F90F5
:101090001F9018951F920F920FB60F9211242F9345
:1010A0003F934F935F936F937F938F939F93AF93F0
:1010B000BF93EF93FF93E091D301F091D401099591
:1010C00081E088BFFF91EF91BF91AF919F918F9188
:1010D0007F916F915F914F913F912F910F900FBE34
:1010E0000F901F9018951F920F920FB60F92112418
:1010F0002F933F934F935F936F937F938F939F9320
:10110000AF93BF93EF93FF93E091CD01F091CE01A8
:10111000099584E088BFFF91EF91BF91AF919F91B6
:101120008F917F916F915F914F913F912F910F9090
:101130000FBE0F901F9018951F920F920FB60F922F
:1011400011242F933F934F935F936F937F938F93CC
:101150009F93AF93BF93EF93FF93E091CF01F091F3
:10116000D001099580E488BFFF91EF91BF91AF91C5
:101170009F918F917F916F915F914F913F912F91AF
:101180000F900FBE0F901F9018951F920F920FB6E1
:101190000F9211242F933F934F935F936F937F93FD
:1011A0008F939F93AF93BF93EF93FF93E091CB0106
:1011B000F091CC01099580E288BFFF91EF91BF913A
:1011C000AF919F918F917F916F915F914F913F91DF
:1011D0002F910F900FBE0F901F9018951F920F9296
:1011E0000FB60F9211242F933F934F935F936F93FA
:1011F0007F938F939F93AF93BF93EF93FF93E09170
:10120000D701F091D801099580E188BFFF91EF9156
:10121000BF91AF919F918F917F916F915F914F910E
:101220003F912F910F900FBE0F901F9018958CE05B
:1012300080B986B7846086BF089586B7806A86BF06
:1012400006B607FEFDCF91B1987F81E0983009F096
:1012500080E0089586B7806A86BF06B607FEFDCF98
:1012600091B1987F81E0903109F080E0089586B7D0
:10127000806986BF089583B986B78F7D86BF86B79C
:10128000806886BF06B607FEFDCF0895880F83B934
:1012900086B7806886BF06B607FEFDCF91B1987FFE
:1012A00081E0983109F080E00895880F81600E9404
:1012B0003B0991B1987F81E0903409F080E0089576
:1012C00086B78F7D86BF86B7806886BF06B607FE65
:1012D000FDCF83B10895A1E21A2EAA1BBB1BFD010D
:1012E0000DC0AA1FBB1FEE1FFF1FA217B307E40705
:1012F000F50720F0A21BB30BE40BF50B661F771F5D
:10130000881F991F1A9469F760957095809590953C
:0E1310009B01AC01BD01CF010895F894FFCF01
:10131E00010101000E0A0A1F1F1F1F1E1210081FB7
:10132E001F1F1F000E0E0E0E1F0E04040E1F0E0E9C
:10133E000E0E00041F11111F1F1F1F041F111F1F50
:10134E001F1F1F041F1F1F1F1F1F1F00000101054E
:10135E000515155374617465203A20004C6F636B4C
:10136E00656400556E6C6F636B65640053656C65E8
:10137E006374204F6E65206F663A2000312D205524
:10138E006E6C6F636B2000312D204C6F636B2000F1
:10139E00322D204368616E67652050617373776FDD
:1013AE0072642000332D20466163746F727920526F
:1013BE00657365742000456E746572205061737399
:1013CE00776F72642000456E74657220002D64691B
:1013DE0067697420506173733A0052657065617469
:1013EE002050617373776F72642000476F6F642EA5
:1013FE002E2E2000454550524F4D204641494C005F
:10140E00506F776572204D6F6465004E6F74204982
:10141E0064656E746963616C2E2E2E0057656C6365
:10142E006F6D6520746F20736166652061726561F2
:10143E000057726F6E672050617373776F7264001E
:10144E0057726F6E672043686F6963650031323380
:0E145E00413435364237383943463045440074
:00000001FF
